:10000000000004200701000005010000C9000000F5
:1000100005010000050100000501000000000000CE
:1000200000000000000000000000000005010000CA
:1000300005010000000000000501000005010000AE
:100040004FF0A0404FF4C04100F011F800F01EF84E
:1000500000F010F800F014F800F024F84FF400530A
:100060004FF4804443EA040300F013F8F2E7C0F8C9
:100070001815F7461249C0F82C17C0F83017F74684
:10008000104A002A1CBF521EFBE7F746C0F80815AD
:10009000F746D0F8041501EA030282EA0302C0F829
:1000A0000425F746D0F810156FEA010111F4006F2E
:1000B00018BFF74611F4805F18BFF746F2D0000072
:0800C0000C000300006A1800A7
:1000C80008490A68002AFED41EF0040F0CBFEFF39B
:1000D8000880EFF3098042F000420A60816902312A
:0800E800816170472CED00E07E
:1000F000034C2068241D8047FBE7FFF7A1FFFEE7C4
:0401000010010000EA
:02010400FEE714
:08010600AFF30080FFF7F1FFE9
:04011000FB000000F0
:0400000300000107F1
:00000001FF
