:100000000000042053010000D9000000510000004E
:10001000D9000000D9000000D90000000000000055
:10002000000000000000000000000000D9000000F7
:10003000D900000000000000D9000000D900000035
:10004000024A002A1CBF521EFBE77047006A1800D4
:1000500008490A68002AFED41EF0040F0CBFEFF313
:100060000880EFF3098042F000420A6081690231A2
:08007000816170472CED00E0F6
:10007800034C2068241D8047FBE700F02AF8FEE7C0
:040088005C01000017
:10008C0083B040F21850C5F20000029002994FF470
:10009C00F030086040F20851C5F20001019101995D
:1000AC00086040F22C70C5F20000009000990C2002
:0A00BC00C0F20300086003B07047B3
:1000C60081B000900098C04300900098400301B0B2
:0200D600704771
:0200D800FEE741
:1000DA0080B584B0002000900390FFF7D2FF00980B
:1000EA00029001900298042801D300200290FFF7A1
:1000FA00A2FF00F00BF80298FFF7E0FF01900198C9
:0C010A0000F016F8029801300290EBE7BC
:1001160081B040F21050C5F20000006800900098CF
:10012600C043009000980005002800D500E0F0E7E5
:0401360001B070475D
:10013A0082B0019040F20450C5F20000009001988C
:08014A000099086002B0704743
:08015200AFF30080FFF78FFFFF
:04015C00830000001C
:0400000300000153A5
:00000001FF
