:10000000000004201F0100001D010000E1000000AD
:100010001D0100001D0100001D0100000000000086
:100020000000000000000000000000001D010000B2
:100030001D010000000000001D0100001D01000066
:100040004FF0A0404FF4F03100F00BF800F01CF836
:1000500000F00AF800F012F800F020F800F017F8AD
:10006000F8E7C0F81815F7461B49C0F82C17C0F878
:100070003017C0F86017C0F86417F746174A002A0F
:100080001CBF521EFBE7F746C0F80815F746D0F82C
:10009000041581EA0302C0F80425F746D0F81015CC
:1000A0006FEA010111F4006F1CBF4FF40053F746D3
:1000B00011F4805F1CBF4FF48043F74611F0807F3E
:1000C0001CBF4FF40043F74611F0007F1CBF4FF4F4
:1000D0008033F746E2D000000C0003000024F40057
:1000E00008490A68002AFED41EF0040F0CBFEFF383
:1000F0000880EFF3098042F000420A608169023112
:08010000816170472CED00E065
:10010800034C2068241D8047FBE7FFF795FFFEE7B7
:0401180028010000BA
:02011C00FEE7FC
:08011E00AFF30080FFF7F1FFD1
:0401280013010000BF
:040000030000011FD9
:00000001FF
