:1000000000000420AF010000AD01000071010000FC
:10001000AD010000AD010000AD01000000000000D6
:10002000000000000000000000000000AD01000022
:10003000AD01000000000000AD010000AD010000B6
:1000400000000000000000000000000000000000B0
:0C005000000000000000000001010000A2
:10005C0000F006F800F012F800F042F830BFFEE7AE
:10006C004FF0A0404FF4C041C0F81815C0F8081567
:10007C003649C0F82C17C0F83017F74634484FF003
:10008C000301C0F804134FF001014FF00B024FEACB
:10009C00022241EA02014FF000024FEA423241EAE9
:1000AC0002014FF002024FEA024241EA0201C0F89B
:1000BC0010154FF001014FF00C024FEA022241EAF9
:1000CC0002014FF000024FEA423241EA02014FF0C6
:1000DC0002024FEA024241EA0201C0F814157047CD
:1000EC001C484FF0400101601B484FF00201C0F862
:1000FC000610704700B51948016811F0010F18BFC0
:10010C0000F014F81FBF1548002101600BE01448E3
:10011C00016811F0010F18BF00F008F81FBF10485C
:10012C0000210160FFE75DF804EB70474FF0A04041
:10013C00D0F804154FF400534FF4804443EA040202
:10014C0081EA0201C0F80415F74600000C00030018
:10015C000060004000E100E000E400E000610040CD
:04016C0004610040EA
:1001700008490A68002AFED41EF0040F0CBFEFF3F2
:100180000880EFF3098042F000420A608169023181
:08019000816170472CED00E0D5
:10019800034C2068241D8047FBE7FFF75BFFFEE761
:0401A800B80100009A
:0201AC00FEE76C
:0801AE00AFF30080FFF7F1FF41
:0401B800A30100009F
:04000003000001AF49
:00000001FF
